:100000002BC0DAC6D9C6D8C6D7C6D6C6D5C6D4C6BA
:1000100089C6D2C6D1C6D0C6CFC652C5CDC6CCC6FB
:10002000CBC6CAC6C9C6C8C6C7C6C6C6C5C6C4C664
:10003000C3C6C2C63F8B3F8C803F8C3F8D803F85BF
:100040003F87803F813F85803F873F89803F893F51
:100050008B803F003F81800011241FBECFEFCDBFBA
:10006000DFE3DEBFE4E3F0E040E017C0B591A59127
:1000700035912591059107FD0CC095918591EF0172
:10008000F92FE82F05900D92A217B307D9F7FE01BB
:1000900004C01D92A217B307E1F7E735F40731F763
:0800A00003D000C0F894FFCF6B
:1000A800F89488ED84BF10926100E0E0F4E080E409
:1000B8008183C0E0D8E0A0E0BAE0A887B9878E8342
:1000C80093E09F838AE0818380E8818384E0828350
:1000D80021E32093200811E01683808BC0E0D6E04E
:1000E80027E12A8327E028831E821A961C931A97F1
:1000F8008C9329E839E096962D933C939797E0E402
:10010800FAE01182158320E23EE424873587908344
:100118001FBF789430D68091893F90918A3F880F8D
:10012800991F880F991F8A5F9F4EA0E0B0E08093C7
:10013800813F9093823FA093833FB093843F8FEF9A
:100148009FEF8093873F9093883F82E090E0809371
:10015800873F9093883F20D68091873F9091883F32
:10016800B6D584D51887E0E0F6E0838580FFFDCF1B
:10017800A12C6894BB24B2F86894332437F80F2E66
:10018800FFE04F2EF02D80918B3F882309F4CAC0E1
:100198008091853F9091863F892B09F4C1C0C12C7D
:1001A800D12C02D6F5013582368283E0DAD54C9C13
:1001B800F0014D9CF00D1124EE5FF04C4481558107
:1001C8006681778180819181A281B3818A019B01B7
:1001D800080F191F2A1F3B1FC901B80162D54C9C83
:1001E80080014D9C100D11240E5F104C48012CE02D
:1001F800820E911C780138E0E30EF11CE8012D967F
:10020800025F1F4F6C2CF4018081882309F43FC0E2
:10021800F70180819181A281B381892B8A2B8B2B55
:10022800B1F5F401708058808081AED58881ACD555
:10023800F8018081A9D5862D5DD1882341F18F32BF
:1002480031F480918C3F815080938C3F20C0872D62
:10025800807F8039C1F6F4018081807F803899F6EB
:10026800F70180819181A281B381892B8A2B8B2B05
:1002780051F688815812C7CF862D3CD1882339F092
:100288008F3209F680918C3F815080938C3FF50125
:1002980035824C9CF0014D9CF00D1124EE5FF04C22
:1002A80080859185A285B385892B8A2B8B2B91F02C
:1002B8004C9CF0014D9CF00D1124EE5FF04C8085B4
:1002C8009185A285B3850197A109B1098087918796
:1002D800A287B38780918C3F811117C0E0E0FAE0D4
:1002E80080818E7F808358D58091803F8C70843048
:1002F80039F48091873F9091883FE9D4B7D405C0FD
:100308008091803F8C7009F491D4FFEFCF1ADF0AF7
:100318008091853F9091863FC816D90608F441CF51
:1003280010928B3F80917F3F8A3F08F440C08091B4
:10033800803F86FD72C08091803F8E7F8093803F92
:100348008091803F80648093803F8091803F8C7053
:10035800883031F48091803F837F8093803F1EC036
:100368008091803F8C70843059F48091803F837FE6
:100378008093803F8091803F88608093803F0EC04B
:100388008091803F8C7051F48091803F837F80936F
:10039800803F8091803F84608093803F8DEFF4D4CC
:1003A8008091803F869586958370EED436C0809183
:1003B8007F3F863050F080917E3F8A3F30F48091B5
:1003C800803F81608093803F28C080917F3F81116A
:1003D80024C08091803F80FF16C08091803F86FDB9
:1003E80012C08091803F88236CF48091803F8F7782
:1003F8008093803F8BEFC8D4E0E0FAE08081816091
:10040800808301C013D48091803F8E7F8093803F8A
:100418008091803F8F7B8093803F80917E3F8A3F91
:1004280088F08091803F88230CF4ADCE8091803F86
:1004380080688093803F8091803F8D7F8093803F4C
:10044800ABD4A1CE80917E3F863050F080917E3F24
:100458008A3F30F48091803F82608093803F93CEC2
:1004680080917E3F81118FCE8091803F81FF3CC07B
:100478008091803F88236CF48091803F8F778093B0
:10048800803F8BEF81D4E0E0FAE080818160808357
:100498002BC08091873F9091883F892B59F02091FC
:1004A800873F3091883F8091893F90918A3F2817F4
:1004B800390750F08091893F90918A3F0197809346
:1004C800873F9093883F09C08091873F9091883FEC
:1004D80001978093873F9093883F5ED48091873FB0
:1004E8009091883FF4D3C2D38091803F8D7F8093D1
:0404F800803F49CE2A
:1004FC002F923F924F925F926F927F928F929F9228
:10050C00AF92BF92CF92DF92EF92FF921F93CF9355
:10051C00DF939FE0899FF0011124EE5FF04C808007
:10052C009180A280B3801086118612861386482E85
:10053C00512CEFE08E9FE0011124C65FD04C0F2EA2
:10054C00FAE76F2EFFE37F2EF02D0F2E212CFAE011
:10055C003F2EF02D3CC1CC0CDD1CEE1CFF1CCC0C3A
:10056C00DD1CEE1CFF1CCC0CDD1CEE1CFF1CCC0C93
:10057C00DD1CEE1CFF1CCC0CDD1CEE1CFF1CCC0C83
:10058C00DD1CEE1CFF1CCC0CDD1CEE1CFF1C80E0EB
:10059C00E6D31F5F882344F48F77C80ED11CE11C6F
:1005AC00F11C1430C1F610C0488159816A817B81DD
:1005BC00C40ED51EE61EF71EC80ED11CE11CF11C84
:1005CC00C882D982EA82FB8275016401C10ED11CFA
:1005DC00E11CF11C80E0C3D3182F46015701FFEF3B
:1005EC008F1A9F0AAF0ABF0A982F907F807E80389F
:1005FC0011F0903ED1F48FE0849DE001859DD00DEB
:10060C001124CE5FD04C1C8780E0A9D38D8780E06D
:10061C00A6D38E8783E0C80ED11CE11CF11CC882C6
:10062C00D982EA82FB828FEFE4C0803A61F480E0E9
:10063C0096D380E094D34601570193E0890E911C28
:10064C00A11CB11C0CC0803C51F480E088D3460145
:10065C005701E2E08E0E911CA11CB11CB8C01F3FCB
:10066C0009F0B5C075016401FFEFCF1ADF0AEF0A7C
:10067C00FF0A80E074D38F3209F4BBC048F48A308F
:10068C0020F4813008F4A8C016C0803291F08DC0DF
:10069C00883509F47AC030F48135B9F0843509F421
:1006AC009DC083C0893509F472C0873F09F471C0BD
:1006BC007CC082E094C080E052D37501640192E06A
:1006CC00C90ED11CE11CF11C71C080E048D3109202
:1006DC007A3F10927B3F10927C3F10927D3F80E0DE
:1006EC003ED3F301828380E03AD3F301818380E02F
:1006FC0036D3F301808380917A3F90917B3FA09118
:10070C007C3FB0917D3F880F991FAA1FBB1F880F9C
:10071C00991FAA1FBB1FAC01BD01440F551F661FBB
:10072C00771F440F551F661F771F840F951FA61F39
:10073C00B71F80937A3F90937B3FA0937C3FB093FD
:10074C007D3F60917A3F70917B3F80917C3F90918F
:10075C007D3F2091003F3091013F032E000C440B54
:10076C00550B40D2DA01C901B695A7959795879597
:10077C00B695A79597958795F10186A397A3F5E074
:10078C008F0E911CA11CB11C22C085E028C083E0F7
:10079C0026C0460157018FEF881A980AA80AB80A92
:1007AC0080E0DDD2873FB9F712C080E046015701E7
:1007BC00880E911CA11CB11CFF24FA94F80E8823FE
:1007CC0031F080E0CCD28F2DFA948111FACF10E069
:1007DC00C12CD12C7601BFCE81E001C086E0460150
:1007EC005701880E911CA11CB11CFF24FA94F80E21
:1007FC00E8CFDF91CF911F91FF90EF90DF90CF90DA
:10080C00BF90AF909F908F907F906F905F904F9024
:06081C003F902F900895AB
:10082200CF92DF92EF92FF920F931F93CF93DF93BA
:10083200CDB7DEB72697CDBFDEBF8091893F9091BD
:100842008A3F880F991F880F991FA0E0B0E08A5F46
:100852009F4EAF4FBF4F8093813F9093823FA093B3
:10086200833FB093843F8091873F9091883F892B4B
:1008720009F458C08091893F90918A3F892B09F4ED
:1008820051C02091873F3091883F8091893F90915C
:100892008A3F2817390748F08091893F90918A3F13
:1008A20001978093873F9093883F8091873F9091F3
:1008B200883F892BB9F100E010E00F2EF6E0CF2E31
:1008C200F0E1DF2EE12CF12CF02D24E0AE014F5FA0
:1008D2005F4FC701B6015CD14091813F5091823F89
:1008E2006091833F7091843F89819A81AB81BC8101
:1008F200840F951FA61FB71F8093813F9093823F5D
:10090200A093833FB093843F84E0C80ED11CE11CC6
:10091200F11C0F5F1F4F8091873F9091883F08170E
:10092200190798F26091813F7091823F8091833FD5
:100932009091843F22E0AE014B5F5F4F29D18091BD
:10094200813F9091823FA091833FB091843F2D815E
:100952003E812E5F3F4F820F931FA11DB11D8093D9
:10096200813F9093823FA093833FB093843F26962A
:10097200CDBFDEBFDF91CF911F910F91FF90EF901E
:06098200DF90CF90089504
:100988006F927F928F929F92AF92BF92CF92DF9297
:10099800EF92FF920F931F93CF93DF9300D000D075
:1009A800CDB7DEB7C090813FD090823FE090833FC3
:1009B800F090843F82E1C80ED11CE11CF11C198221
:1009C8001A821B821C828091853F9091863F892BD9
:1009D80009F45EC0B12C712C0F2EFFE06F2EF02DA4
:1009E800812C6894992492F86894AA24A7F86B9C9F
:1009F800800111240E5F104CF801148615861686A6
:100A08001082118212821382148215821682178232
:100A1800CBD1F401A582A68283E0A3D1C701B60198
:100A280040D180E09ED18C8380E09BD18B8380E095
:100A380098D18A8380E095D18983F4E0CF0ED11CC8
:100A4800E11CF11CF801C482D582E682F7828B2D65
:100A580051DD8F3F09F4B394F401A58289819A810D
:100A6800AB81BC810496A11DB11DC80ED91EEA1E1A
:100A7800FB1E73948091853F9091863F272D30E02F
:100A88002817390730F4F7E0FB1508F0B0CF01C09C
:100A9800B12C8B2D2496CDBFDEBFDF91CF911F9156
:100AA8000F91FF90EF90DF90CF90BF90AF909F9005
:080AB8008F907F906F9008956C
:100AC0001F920F920FB60F9211242F938F939F9323
:100AD0008091100690911106282F91E09093460A7C
:100AE000855B833160F480917F3F8F3F29F0809157
:100AF0007F3F8F5F80937F3F10927E3F12C0283CE4
:100B000060F080917E3F8F3F29F080917E3F8F5F24
:100B100080937E3F10927F3F04C010927F3F1092DF
:100B20007E3F9F918F912F910F900FBE0F901F903E
:020B3000189516
:100B32008091813F9091823FA091833FB091843F09
:100B4200BC01CD01645F7F4F8F4F9F4F22E040E099
:100B52005FE31ED08091003F9091013F9923BCF446
:100B62008091003F9091013F4091003F5091013FA1
:100B7200892F990F990B919581959109489F900121
:100B8200499F300D11242093003F3093013F089577
:100B92008F929F92AF92BF92EF92FF920F931F9309
:100BA200CF934B015C017A01C22F01D1E0E0F4E066
:100BB20080E88583868383E0D7D0C501B40174D0F1
:100BC200C15087010C0F111D80E0CED0F801808347
:100BD200C111F6CF80E880930504CF911F910F9148
:0E0BE200FF90EF90BF90AF909F908F9008957E
:100BF000A1E21A2EAA1BBB1BFD010DC0AA1FBB1F21
:100C0000EE1FFF1FA217B307E407F50720F0A21B92
:100C1000B30BE40BF50B661F771F881F991F1A94FF
:100C200069F760957095809590959B01AC01BD0129
:040C3000CF01089553
:100C34008091873F9091883F01968093873F90935E
:100C4400883F2091873F3091883F8091893F9091E0
:100C54008A3F2817390720F01092873F1092883F67
:100C64009DD08091873F9091883F33D001D00895E3
:100C74008AEF8CD08091873F9091883F892F86D0CE
:100C84008091873F9091883F81D08DEF7FD0809174
:100C9400803F86958695837079D0E0E0FAE0808184
:060CA400816080830895C9
:100CAA00CF93DF9300D000D0CDB7DEB769837A83C4
:100CBA008B839C838B8154D08A8152D0898150D076
:0C0CCA002496CDBFDEBFDF91CF910895CE
:100CD6008093873F9093883FA1DD0ED027DF51DEBA
:100CE60090E08093853F9093863F8091853F9091D9
:080CF600863F80938C3F0895B6
:100CFE008091813F9091823FA091833FB091843F3C
:100D0E00BC01CD01665F7F4F8F4F9F4F22E045E8BC
:060D1E005FE338DF0895D9
:100D24001F920F920FB60F9211248F9381E080933C
:100D34000B0A8FEF80938B3F8F910F900FBE0F9014
:040D44001F9018954F
:100D48001F93CF93DF93C0E0D4E010E81D831E8388
:100D580085E007D080E005D01D83DF91CF911F91FA
:020D68000895EC
:100D6A0080932408E0E2F8E083818823ECF78091FD
:040D7A0024080895AC
:100D7E0022E049E85FE364E070E180E090E002DFAA
:020D8E000895C6
:100D9000E0E0F8E0948195FFFDCF8093020808958C
:100DA0008CEFF6DFE0E0FAE080818E7F80830895AB
:080DB000CBDF80FDFDCF0895AB
:020DB80023C94D
:00000001FF
